{
  "contractName": "LandContract",
  "abi": [
    {
      "constant": true,
      "inputs": [],
      "name": "name",
      "outputs": [
        {
          "name": "",
          "type": "string"
        }
      ],
      "payable": false,
      "stateMutability": "view",
      "type": "function"
    },
    {
      "constant": true,
      "inputs": [],
      "name": "a",
      "outputs": [
        {
          "name": "",
          "type": "address"
        }
      ],
      "payable": false,
      "stateMutability": "view",
      "type": "function"
    },
    {
      "constant": true,
      "inputs": [],
      "name": "owner",
      "outputs": [
        {
          "name": "",
          "type": "address"
        }
      ],
      "payable": false,
      "stateMutability": "view",
      "type": "function"
    },
    {
      "constant": true,
      "inputs": [],
      "name": "landCount",
      "outputs": [
        {
          "name": "",
          "type": "uint256"
        }
      ],
      "payable": false,
      "stateMutability": "view",
      "type": "function"
    },
    {
      "constant": true,
      "inputs": [
        {
          "name": "",
          "type": "uint256"
        }
      ],
      "name": "lands",
      "outputs": [
        {
          "name": "landID",
          "type": "uint256"
        },
        {
          "name": "location",
          "type": "string"
        },
        {
          "name": "image",
          "type": "string"
        },
        {
          "name": "value",
          "type": "uint256"
        },
        {
          "name": "owner",
          "type": "address"
        },
        {
          "name": "forSale",
          "type": "bool"
        }
      ],
      "payable": false,
      "stateMutability": "view",
      "type": "function"
    },
    {
      "constant": true,
      "inputs": [
        {
          "name": "",
          "type": "uint256"
        }
      ],
      "name": "contractnum",
      "outputs": [
        {
          "name": "",
          "type": "string"
        }
      ],
      "payable": false,
      "stateMutability": "view",
      "type": "function"
    },
    {
      "inputs": [
        {
          "name": "addr",
          "type": "address"
        }
      ],
      "payable": false,
      "stateMutability": "nonpayable",
      "type": "constructor"
    },
    {
      "anonymous": false,
      "inputs": [
        {
          "indexed": false,
          "name": "landID",
          "type": "uint256"
        },
        {
          "indexed": false,
          "name": "location",
          "type": "string"
        },
        {
          "indexed": false,
          "name": "value",
          "type": "uint256"
        },
        {
          "indexed": false,
          "name": "owner",
          "type": "address"
        },
        {
          "indexed": false,
          "name": "forSale",
          "type": "bool"
        }
      ],
      "name": "Add",
      "type": "event"
    },
    {
      "anonymous": false,
      "inputs": [
        {
          "indexed": false,
          "name": "landID",
          "type": "uint256"
        },
        {
          "indexed": false,
          "name": "location",
          "type": "string"
        },
        {
          "indexed": false,
          "name": "value",
          "type": "uint256"
        },
        {
          "indexed": false,
          "name": "owner",
          "type": "address"
        },
        {
          "indexed": false,
          "name": "forSale",
          "type": "bool"
        }
      ],
      "name": "Transfer",
      "type": "event"
    },
    {
      "anonymous": false,
      "inputs": [
        {
          "indexed": false,
          "name": "landID",
          "type": "uint256"
        },
        {
          "indexed": false,
          "name": "location",
          "type": "string"
        },
        {
          "indexed": false,
          "name": "value",
          "type": "uint256"
        },
        {
          "indexed": false,
          "name": "owner",
          "type": "address"
        },
        {
          "indexed": false,
          "name": "forSale",
          "type": "bool"
        }
      ],
      "name": "List",
      "type": "event"
    },
    {
      "constant": false,
      "inputs": [
        {
          "name": "_location",
          "type": "string"
        },
        {
          "name": "_image",
          "type": "string"
        },
        {
          "name": "_value",
          "type": "uint256"
        }
      ],
      "name": "addLand",
      "outputs": [],
      "payable": false,
      "stateMutability": "nonpayable",
      "type": "function"
    },
    {
      "constant": false,
      "inputs": [
        {
          "name": "_id",
          "type": "uint256"
        }
      ],
      "name": "buyLand",
      "outputs": [],
      "payable": true,
      "stateMutability": "payable",
      "type": "function"
    },
    {
      "constant": false,
      "inputs": [
        {
          "name": "_id",
          "type": "uint256"
        },
        {
          "name": "_value",
          "type": "uint256"
        }
      ],
      "name": "listLand",
      "outputs": [],
      "payable": true,
      "stateMutability": "payable",
      "type": "function"
    }
  ],
  "bytecode": "0x608060405260006002556040518061028001604052806040518060400160405280600481526020017f303030310000000000000000000000000000000000000000000000000000000081525081526020016040518060400160405280600481526020017f303030320000000000000000000000000000000000000000000000000000000081525081526020016040518060400160405280600481526020017f303030330000000000000000000000000000000000000000000000000000000081525081526020016040518060400160405280600481526020017f303030340000000000000000000000000000000000000000000000000000000081525081526020016040518060400160405280600481526020017f303030350000000000000000000000000000000000000000000000000000000081525081526020016040518060400160405280600481526020017f303030360000000000000000000000000000000000000000000000000000000081525081526020016040518060400160405280600481526020017f303030370000000000000000000000000000000000000000000000000000000081525081526020016040518060400160405280600481526020017f303030380000000000000000000000000000000000000000000000000000000081525081526020016040518060400160405280600481526020017f303030390000000000000000000000000000000000000000000000000000000081525081526020016040518060400160405280600481526020017f303031300000000000000000000000000000000000000000000000000000000081525081526020016040518060400160405280600481526020017f303031310000000000000000000000000000000000000000000000000000000081525081526020016040518060400160405280600481526020017f303031320000000000000000000000000000000000000000000000000000000081525081526020016040518060400160405280600481526020017f303031330000000000000000000000000000000000000000000000000000000081525081526020016040518060400160405280600481526020017f303031340000000000000000000000000000000000000000000000000000000081525081526020016040518060400160405280600481526020017f303031350000000000000000000000000000000000000000000000000000000081525081526020016040518060400160405280600481526020017f303031360000000000000000000000000000000000000000000000000000000081525081526020016040518060400160405280600481526020017f303031370000000000000000000000000000000000000000000000000000000081525081526020016040518060400160405280600481526020017f303031380000000000000000000000000000000000000000000000000000000081525081526020016040518060400160405280600481526020017f303031390000000000000000000000000000000000000000000000000000000081525081526020016040518060400160405280600481526020017f30303230000000000000000000000000000000000000000000000000000000008152508152506003906014620004c1929190620005d9565b50348015620004cf57600080fd5b50604051602080620024f283398101806040526020811015620004f157600080fd5b81019080805190602001909291905050506040518060400160405280600f81526020017f4a6577656c204a6f7920486f6d65730000000000000000000000000000000000815250600090805190602001906200054f92919062000640565b5033600160006101000a81548173ffffffffffffffffffffffffffffffffffffffff021916908373ffffffffffffffffffffffffffffffffffffffff16021790555080600460006101000a81548173ffffffffffffffffffffffffffffffffffffffff021916908373ffffffffffffffffffffffffffffffffffffffff16021790555050620007f3565b8280548282559060005260206000209081019282156200062d579160200282015b828111156200062c5782518290805190602001906200061b929190620006c7565b5091602001919060010190620005fa565b5b5090506200063c91906200074e565b5090565b828054600181600116156101000203166002900490600052602060002090601f016020900481019282601f106200068357805160ff1916838001178555620006b4565b82800160010185558215620006b4579182015b82811115620006b357825182559160200191906001019062000696565b5b509050620006c391906200077f565b5090565b828054600181600116156101000203166002900490600052602060002090601f016020900481019282601f106200070a57805160ff19168380011785556200073b565b828001600101855582156200073b579182015b828111156200073a5782518255916020019190600101906200071d565b5b5090506200074a91906200077f565b5090565b6200077c91905b808211156200077857600081816200076e9190620007a7565b5060010162000755565b5090565b90565b620007a491905b80821115620007a057600081600090555060010162000786565b5090565b90565b50805460018160011615610100020316600290046000825580601f10620007cf5750620007f0565b601f016020900490600052602060002090810190620007ef91906200077f565b5b50565b611cef80620008036000396000f3fe6080604052600436106100865760003560e01c8063ced3955811610059578063ced3955814610332578063d7bce65814610360578063e261f1e51461038b578063ead1331e146104f7578063f35fb209146105ab57610086565b806306fdde031461008b5780630c73f23d1461011b5780630dbe671f146102845780638da5cb5b146102db575b600080fd5b34801561009757600080fd5b506100a06105e3565b6040518080602001828103825283818151815260200191508051906020019080838360005b838110156100e05780820151818401526020810190506100c5565b50505050905090810190601f16801561010d5780820380516001836020036101000a031916815260200191505b509250505060405180910390f35b34801561012757600080fd5b506102826004803603606081101561013e57600080fd5b810190808035906020019064010000000081111561015b57600080fd5b82018360208201111561016d57600080fd5b8035906020019184600183028401116401000000008311171561018f57600080fd5b91908080601f016020809104026020016040519081016040528093929190818152602001838380828437600081840152601f19601f820116905080830192505050505050509192919290803590602001906401000000008111156101f257600080fd5b82018360208201111561020457600080fd5b8035906020019184600183028401116401000000008311171561022657600080fd5b91908080601f016020809104026020016040519081016040528093929190818152602001838380828437600081840152601f19601f82011690508083019250505050505050919291929080359060200190929190505050610681565b005b34801561029057600080fd5b50610299610c2e565b604051808273ffffffffffffffffffffffffffffffffffffffff1673ffffffffffffffffffffffffffffffffffffffff16815260200191505060405180910390f35b3480156102e757600080fd5b506102f0610c54565b604051808273ffffffffffffffffffffffffffffffffffffffff1673ffffffffffffffffffffffffffffffffffffffff16815260200191505060405180910390f35b61035e6004803603602081101561034857600080fd5b8101908080359060200190929190505050610c7a565b005b34801561036c57600080fd5b506103756113f3565b6040518082815260200191505060405180910390f35b34801561039757600080fd5b506103c4600480360360208110156103ae57600080fd5b81019080803590602001909291905050506113f9565b6040518087815260200180602001806020018681526020018573ffffffffffffffffffffffffffffffffffffffff1673ffffffffffffffffffffffffffffffffffffffff16815260200184151515158152602001838103835288818151815260200191508051906020019080838360005b83811015610450578082015181840152602081019050610435565b50505050905090810190601f16801561047d5780820380516001836020036101000a031916815260200191505b50838103825287818151815260200191508051906020019080838360005b838110156104b657808201518184015260208101905061049b565b50505050905090810190601f1680156104e35780820380516001836020036101000a031916815260200191505b509850505050505050505060405180910390f35b34801561050357600080fd5b506105306004803603602081101561051a57600080fd5b8101908080359060200190929190505050611592565b6040518080602001828103825283818151815260200191508051906020019080838360005b83811015610570578082015181840152602081019050610555565b50505050905090810190601f16801561059d5780820380516001836020036101000a031916815260200191505b509250505060405180910390f35b6105e1600480360360408110156105c157600080fd5b81019080803590602001909291908035906020019092919050505061164d565b005b60008054600181600116156101000203166002900480601f0160208091040260200160405190810160405280929190818152602001828054600181600116156101000203166002900480156106795780601f1061064e57610100808354040283529160200191610679565b820191906000526020600020905b81548152906001019060200180831161065c57829003601f168201915b505050505081565b600160009054906101000a900473ffffffffffffffffffffffffffffffffffffffff1673ffffffffffffffffffffffffffffffffffffffff163373ffffffffffffffffffffffffffffffffffffffff161415156106dd57600080fd5b60008351111515610756576040517f08c379a00000000000000000000000000000000000000000000000000000000081526004018080602001828103825260188152602001807f4d75737420626520612076616c6964206c6f636174696f6e000000000000000081525060200191505060405180910390fd5b6000811115156107ce576040517f08c379a000000000000000000000000000000000000000000000000000000000815260040180806020018281038252600f8152602001807f4d75737420626520612076616c7565000000000000000000000000000000000081525060200191505060405180910390fd5b6002600081548092919060010191905055506040518060c0016040528060025481526020018481526020018381526020018281526020013373ffffffffffffffffffffffffffffffffffffffff16815260200160011515815250600560006002548152602001908152602001600020600082015181600001556020820151816001019080519060200190610863929190611bd0565b506040820151816002019080519060200190610880929190611bd0565b506060820151816003015560808201518160040160006101000a81548173ffffffffffffffffffffffffffffffffffffffff021916908373ffffffffffffffffffffffffffffffffffffffff16021790555060a08201518160040160146101000a81548160ff021916908315150217905550905050600460009054906101000a900473ffffffffffffffffffffffffffffffffffffffff1673ffffffffffffffffffffffffffffffffffffffff1663d85d3d27600360016002540381548110151561094757fe5b906000526020600020016040518263ffffffff1660e01b815260040180806020018281038252838181546001816001161561010002031660029004815260200191508054600181600116156101000203166002900480156109e95780601f106109be576101008083540402835291602001916109e9565b820191906000526020600020905b8154815290600101906020018083116109cc57829003601f168201915b505092505050600060405180830381600087803b158015610a0957600080fd5b505af1158015610a1d573d6000803e3d6000fd5b50505050600460009054906101000a900473ffffffffffffffffffffffffffffffffffffffff1673ffffffffffffffffffffffffffffffffffffffff166342842e0e30600160009054906101000a900473ffffffffffffffffffffffffffffffffffffffff166002546040518463ffffffff1660e01b8152600401808473ffffffffffffffffffffffffffffffffffffffff1673ffffffffffffffffffffffffffffffffffffffff1681526020018373ffffffffffffffffffffffffffffffffffffffff1673ffffffffffffffffffffffffffffffffffffffff1681526020018281526020019350505050600060405180830381600087803b158015610b2257600080fd5b505af1158015610b36573d6000803e3d6000fd5b505050507fb89ec84ff7a8e45184b005a44c7cc48d0e92b5f6b78a5f9d768757d697685412600254848333600160405180868152602001806020018581526020018473ffffffffffffffffffffffffffffffffffffffff1673ffffffffffffffffffffffffffffffffffffffff16815260200183151515158152602001828103825286818151815260200191508051906020019080838360005b83811015610beb578082015181840152602081019050610bd0565b50505050905090810190601f168015610c185780820380516001836020036101000a031916815260200191505b50965050505050505060405180910390a1505050565b600460009054906101000a900473ffffffffffffffffffffffffffffffffffffffff1681565b600160009054906101000a900473ffffffffffffffffffffffffffffffffffffffff1681565b610c82611c50565b600560008381526020019081526020016000206040518060c001604052908160008201548152602001600182018054600181600116156101000203166002900480601f016020809104026020016040519081016040528092919081815260200182805460018160011615610100020316600290048015610d435780601f10610d1857610100808354040283529160200191610d43565b820191906000526020600020905b815481529060010190602001808311610d2657829003601f168201915b50505050508152602001600282018054600181600116156101000203166002900480601f016020809104026020016040519081016040528092919081815260200182805460018160011615610100020316600290048015610de55780601f10610dba57610100808354040283529160200191610de5565b820191906000526020600020905b815481529060010190602001808311610dc857829003601f168201915b50505050508152602001600382015481526020016004820160009054906101000a900473ffffffffffffffffffffffffffffffffffffffff1673ffffffffffffffffffffffffffffffffffffffff1673ffffffffffffffffffffffffffffffffffffffff1681526020016004820160149054906101000a900460ff161515151581525050905060008160800151905060008260000151118015610e8e5750600254826000015111155b1515610f02576040517f08c379a00000000000000000000000000000000000000000000000000000000081526004018080602001828103825260138152602001807f6c616e6420646f6573206e6f742065786973740000000000000000000000000081525060200191505060405180910390fd5b81606001513410151515610f7e576040517f08c379a00000000000000000000000000000000000000000000000000000000081526004018080602001828103825260108152602001807f4e6f7420656e6f7567682066756e64730000000000000000000000000000000081525060200191505060405180910390fd5b600115158260a001511515141515610ffe576040517f08c379a00000000000000000000000000000000000000000000000000000000081526004018080602001828103825260148152602001807f6c616e64206973206e6f7420666f722073616c6500000000000000000000000081525060200191505060405180910390fd5b3373ffffffffffffffffffffffffffffffffffffffff168173ffffffffffffffffffffffffffffffffffffffff16141515156110a2576040517f08c379a000000000000000000000000000000000000000000000000000000000815260040180806020018281038252601a8152602001807f62757965722063616e6e6f74206265206c616e64206f776e657200000000000081525060200191505060405180910390fd5b33826080019073ffffffffffffffffffffffffffffffffffffffff16908173ffffffffffffffffffffffffffffffffffffffff168152505060008260a00190151590811515815250508160056000858152602001908152602001600020600082015181600001556020820151816001019080519060200190611125929190611bd0565b506040820151816002019080519060200190611142929190611bd0565b506060820151816003015560808201518160040160006101000a81548173ffffffffffffffffffffffffffffffffffffffff021916908373ffffffffffffffffffffffffffffffffffffffff16021790555060a08201518160040160146101000a81548160ff0219169083151502179055509050508073ffffffffffffffffffffffffffffffffffffffff166108fc349081150290604051600060405180830381858888f193505050501580156111fd573d6000803e3d6000fd5b50600460009054906101000a900473ffffffffffffffffffffffffffffffffffffffff1673ffffffffffffffffffffffffffffffffffffffff166342842e0e823385600001516040518463ffffffff1660e01b8152600401808473ffffffffffffffffffffffffffffffffffffffff1673ffffffffffffffffffffffffffffffffffffffff1681526020018373ffffffffffffffffffffffffffffffffffffffff1673ffffffffffffffffffffffffffffffffffffffff1681526020018281526020019350505050600060405180830381600087803b1580156112df57600080fd5b505af11580156112f3573d6000803e3d6000fd5b505050507ff6058d925aaac6fafc272442a7b5c5d8aac85c921100fd2e254e3ecf89f7ba316002548360200151846060015133600060405180868152602001806020018581526020018473ffffffffffffffffffffffffffffffffffffffff1673ffffffffffffffffffffffffffffffffffffffff16815260200183151515158152602001828103825286818151815260200191508051906020019080838360005b838110156113b0578082015181840152602081019050611395565b50505050905090810190601f1680156113dd5780820380516001836020036101000a031916815260200191505b50965050505050505060405180910390a1505050565b60025481565b6005602052806000526040600020600091509050806000015490806001018054600181600116156101000203166002900480601f0160208091040260200160405190810160405280929190818152602001828054600181600116156101000203166002900480156114ab5780601f10611480576101008083540402835291602001916114ab565b820191906000526020600020905b81548152906001019060200180831161148e57829003601f168201915b505050505090806002018054600181600116156101000203166002900480601f0160208091040260200160405190810160405280929190818152602001828054600181600116156101000203166002900480156115495780601f1061151e57610100808354040283529160200191611549565b820191906000526020600020905b81548152906001019060200180831161152c57829003601f168201915b5050505050908060030154908060040160009054906101000a900473ffffffffffffffffffffffffffffffffffffffff16908060040160149054906101000a900460ff16905086565b6003818154811015156115a157fe5b906000526020600020016000915090508054600181600116156101000203166002900480601f0160208091040260200160405190810160405280929190818152602001828054600181600116156101000203166002900480156116455780601f1061161a57610100808354040283529160200191611645565b820191906000526020600020905b81548152906001019060200180831161162857829003601f168201915b505050505081565b611655611c50565b600560008481526020019081526020016000206040518060c001604052908160008201548152602001600182018054600181600116156101000203166002900480601f0160208091040260200160405190810160405280929190818152602001828054600181600116156101000203166002900480156117165780601f106116eb57610100808354040283529160200191611716565b820191906000526020600020905b8154815290600101906020018083116116f957829003601f168201915b50505050508152602001600282018054600181600116156101000203166002900480601f0160208091040260200160405190810160405280929190818152602001828054600181600116156101000203166002900480156117b85780601f1061178d576101008083540402835291602001916117b8565b820191906000526020600020905b81548152906001019060200180831161179b57829003601f168201915b50505050508152602001600382015481526020016004820160009054906101000a900473ffffffffffffffffffffffffffffffffffffffff1673ffffffffffffffffffffffffffffffffffffffff1673ffffffffffffffffffffffffffffffffffffffff1681526020016004820160149054906101000a900460ff1615151515815250509050600081600001511180156118585750600254816000015111155b15156118cc576040517f08c379a00000000000000000000000000000000000000000000000000000000081526004018080602001828103825260138152602001807f6c616e6420646f6573206e6f742065786973740000000000000000000000000081525060200191505060405180910390fd5b3373ffffffffffffffffffffffffffffffffffffffff16816080015173ffffffffffffffffffffffffffffffffffffffff16141515611973576040517f08c379a000000000000000000000000000000000000000000000000000000000815260040180806020018281038252601a8152602001807f796f7520617265206e6f7420746865206c616e64206f776e657200000000000081525060200191505060405180910390fd5b600015158160a0015115151415156119f3576040517f08c379a00000000000000000000000000000000000000000000000000000000081526004018080602001828103825260168152602001807f6c616e6420697320616c7265616479206c69737465640000000000000000000081525060200191505060405180910390fd5b60018160a0019015159081151581525050818160600181815250508060056000858152602001908152602001600020600082015181600001556020820151816001019080519060200190611a48929190611bd0565b506040820151816002019080519060200190611a65929190611bd0565b506060820151816003015560808201518160040160006101000a81548173ffffffffffffffffffffffffffffffffffffffff021916908373ffffffffffffffffffffffffffffffffffffffff16021790555060a08201518160040160146101000a81548160ff0219169083151502179055509050507f860792ae13c1e1b4bfed2f0126e03c27cd34ceddf6b678ee73493c134c4a2e338382602001518433600160405180868152602001806020018581526020018473ffffffffffffffffffffffffffffffffffffffff1673ffffffffffffffffffffffffffffffffffffffff16815260200183151515158152602001828103825286818151815260200191508051906020019080838360005b83811015611b8d578082015181840152602081019050611b72565b50505050905090810190601f168015611bba5780820380516001836020036101000a031916815260200191505b50965050505050505060405180910390a1505050565b828054600181600116156101000203166002900490600052602060002090601f016020900481019282601f10611c1157805160ff1916838001178555611c3f565b82800160010185558215611c3f579182015b82811115611c3e578251825591602001919060010190611c23565b5b509050611c4c9190611c9e565b5090565b6040518060c0016040528060008152602001606081526020016060815260200160008152602001600073ffffffffffffffffffffffffffffffffffffffff1681526020016000151581525090565b611cc091905b80821115611cbc576000816000905550600101611ca4565b5090565b9056fea165627a7a72305820eb505225e3851d254dc04190699088f0db7c684f6dec56aef09341eb9c1babdf0029",
  "source": "//pragma solidity ^0.5.0;\npragma solidity ^0.5.5;\n\nimport \"./Asset.sol\";\n\n\ncontract LandContract {\n\n  string public name;\n  address public owner;\n  uint public landCount = 0;\n  string[] public contractnum = [\"0001\",\"0002\",\"0003\",\"0004\",\"0005\",\"0006\",\"0007\",\"0008\",\"0009\",\"0010\",\n                                 \"0011\",\"0012\",\"0013\",\"0014\",\"0015\",\"0016\",\"0017\",\"0018\",\"0019\",\"0020\"];\n  Asset public a;\n  \n  mapping(uint => Land) public lands;\n\n  struct Land {\n    uint landID;\n    string location;\n    string image;\n    uint value;\n    address payable owner;\n    bool forSale;\n  }\n\n  constructor(Asset addr) public {\n    name = \"Jewel Joy Homes\";\n    owner = msg.sender;\n    a = addr;\n  }\n  \n  \n  event Add(\n    uint landID, \n    string location, \n    uint value, \n    address payable owner, \n    bool forSale\n  );\n\n  event Transfer(\n    uint landID, \n    string location, \n    uint value, \n    address payable owner, \n    bool forSale\n  );\n\n  event List(\n    uint landID, \n    string location, \n    uint value, \n    address payable owner, \n    bool forSale\n  );\n    \n  modifier isOwner {\n    require(msg.sender == owner);\n    _;\n  } \n\n  function addLand(string memory _location, string memory _image, uint _value) public isOwner {\n    // Require a valid location\n    require(bytes(_location).length > 0, 'Must be a valid location');\n    // Requie a valid value\n    require(_value > 0, 'Must be a value');\n    // Increment land count\n    landCount++;\n    // Add land\n    lands[landCount] = Land(landCount, _location, _image, _value, msg.sender, true);\n    a.mint(contractnum[landCount-1]);\n    a.safeTransferFrom(address(this), owner, landCount);\n\n    // Trigger an event\n    emit Add(landCount, _location, _value, msg.sender, true);\n  }\n\n  function buyLand(uint _id) public payable {\n    // Fetch the land\n    Land memory _land = lands[_id];\n    // Fetch the owner\n    address payable _landHolder = _land.owner;\n    // Make sure the Land is valid\n    require(_land.landID > 0 && _land.landID <= landCount, 'land does not exist');\n    // Require that there is enough Ether in the transaction\n    require(msg.value >= _land.value, 'Not enough funds');\n    // Require land is for sale\n    require(_land.forSale == true, 'land is not for sale');\n    // Require buyer is not landHolder\n    require(_landHolder != msg.sender, 'buyer cannot be land owner');\n    // Transfer ownership to buyer\n    _land.owner = msg.sender;\n    // Mark as purchased\n    _land.forSale = false;\n    // Update land\n    lands[_id] = _land;\n    // Pay landHolder\n    address(_landHolder).transfer(msg.value);\n    a.safeTransferFrom(_landHolder, msg.sender, _land.landID);\n    // Trigger an event\n    emit Transfer(landCount, _land.location, _land.value, msg.sender, false);\n  }\n  \n  function listLand(uint _id, uint _value) public payable {\n    // Fetch the land\n    Land memory _land = lands[_id];\n    // Make sure the Land is valid\n    require(_land.landID > 0 && _land.landID <= landCount, 'land does not exist');\n    // Require that there is enough Ether in the transaction\n    require(_land.owner == msg.sender, 'you are not the land owner');\n    // Require land is not listed\n    require(_land.forSale == false, 'land is already listed');\n    // Mark as listed\n    _land.forSale = true;\n    // Update price\n    _land.value = _value;\n    // Update land\n    lands[_id] = _land;\n    // Trigger an event\n    emit List(_id, _land.location, _value, msg.sender, true);\n  }\n\n\n  \n}\n    ",
  "sourcePath": "C:/Users/kenan/Coding/Ethereum Home/src/contracts/LandContract.sol",
  "compiler": {
    "name": "solc",
    "version": "0.5.5+commit.47a71e8f.Emscripten.clang"
  },
  "schemaVersion": "3.3.2",
  "updatedAt": "2021-02-01T08:05:24.296Z",
  "networkType": "ethereum",
  "devdoc": {
    "methods": {}
  },
  "userdoc": {
    "methods": {}
  }
}